:020000040800F2
:10000000005000209D120008D5110008DB110008E7
:10001000E1110008E7110008ED11000800000000E0
:10002000000000000000000000000000F3110008C4
:10003000FF110008000000000B1200081712000852
:10004000E5120008E5120008E5120008E5120008B4
:10005000E5120008E5120008E5120008E5120008A4
:10006000E5120008E5120008E5120008E512000894
:10007000E5120008E5120008E5120008E512000884
:10008000E5120008E5120008E5120008E512000874
:10009000E5120008E5120008E5120008E512000864
:1000A000E5120008E5120008E5120008E512000854
:1000B000E5120008E5120008E5120008E512000844
:1000C000E5120008E5120008E5120008E512000834
:1000D000E5120008E5120008E5120008E512000824
:1000E000E5120008E5120008E51200080000000013
:1000F0000000000000000000000000000000000000
:0C01000000000000000000005FF808F1A3
:10010C0010B5054C237833B9044B13B10448AFF345
:10011C0000800123237010BD70000020000000003F
:10012C004C2A000808B5034B1BB103490348AFF335
:10013C00008008BD00000000740000204C2A00085C
:10014C004FF0FF0C1CEAD0521EBF1CEAD15392EAAE
:10015C000C0F93EA0C0F6FD01A4480EA010C40028A
:10016C0018BF5FEA41211ED04FF0006343EA5010E4
:10017C0043EA5111A0FB01310CF00040B1F5000F26
:10018C003EBF490041EAD3715B0040EA010062F1D5
:10019C007F02FD2A1DD8B3F1004F40EBC25008BFBF
:1001AC0020F00100704790F0000F0CF0004C08BFDD
:1001BC0049024CEA502040EA51207F3AC2BFD2F1AA
:1001CC00FF0340EAC250704740F400004FF00003B8
:1001DC00013A5DDC12F1190FDCBF00F000407047F2
:1001EC00C2F10002410021FA02F1C2F1200200FA30
:1001FC0002FC5FEA310040F1000053EA4C0308BFF7
:10020C0020EADC70704792F0000F00F0004C02BF47
:10021C00400010F4000F013AF9D040EA0C0093F0C2
:10022C00000F01F0004C02BF490011F4000F013B1C
:10023C00F9D041EA0C018FE70CEAD15392EA0C0F8A
:10024C0018BF93EA0C0F0AD030F0004C18BF31F0F5
:10025C00004CD8D180EA010000F00040704790F0CB
:10026C00000F17BF90F0004F084691F0000F91F06F
:10027C00004F14D092EA0C0F01D142020FD193EA35
:10028C000C0F03D14B0218BF084608D180EA0100BD
:10029C0000F0004040F0FE4040F40000704740F099
:1002AC00FE4040F44000704780F0004002E000BF88
:1002BC0081F0004142001FBF5FEA410392EA030F45
:1002CC007FEA226C7FEA236C6AD04FEA1262D2EB8F
:1002DC001363C1BFD218414048404140B8BF5B4294
:1002EC00192B88BF704710F0004F40F4000020F02D
:1002FC007F4018BF404211F0004F41F4000121F043
:10030C007F4118BF494292EA030F3FD0A2F101028C
:10031C0041FA03FC10EB0C00C3F1200301FA03F1CA
:10032C0000F0004302D5494260EB4000B0F5000FED
:10033C0013D3B0F1807F06D340084FEA310102F1AC
:10034C000102FE2A51D2B1F1004F40EBC25008BF5E
:10035C0020F0010040EA03007047490040EB000028
:10036C00013A28BFB0F5000FEDD2B0FA80FCACF129
:10037C00080CB2EB0C0200FA0CF0AABF00EBC25056
:10038C0052421843BCBFD0401843704792F0000F44
:10039C0081F4000106BF80F400000132013BB5E797
:1003AC004FEA41037FEA226C18BF7FEA236C21D00D
:1003BC0092EA030F04D092F0000F08BF0846704772
:1003CC0090EA010F1CBF0020704712F07F4F04D140
:1003DC00400028BF40F00040704712F100723CBF53
:1003EC0000F50000704700F0004343F0FE4040F47D
:1003FC00000070477FEA226216BF08467FEA23633B
:10040C000146420206BF5FEA412390EA010F40F425
:10041C00800070474FF0000304E000BF10F0004371
:10042C0048BF40425FEA000C08BF704743F0964358
:10043C0001464FF000001CE050EA010208BF704773
:10044C004FF000030AE000BF50EA010208BF7047FA
:10045C0011F0004302D5404261EB41015FEA010C0F
:10046C0002BF84460146002043F0B64308BFA3F107
:10047C008053A3F50003BCFA8CF2083AA3EBC253E9
:10048C0010DB01FA02FC634400FA02FCC2F1200208
:10049C00BCF1004F20FA02F243EB020008BF20F03F
:1004AC000100704702F1200201FA02FCC2F12002A5
:1004BC0050EA4C0021FA02F243EB020008BF20EA9A
:1004CC00DC70704742000ED2B2F1FE4F0BD34FF0EE
:1004DC009E03B3EB126209D44FEA002343F00043AE
:1004EC0023FA02F070474FF00000704712F1610FD1
:1004FC0001D1420202D14FF0FF3070474FF00000A3
:10050C00704700BF80B586B000AF514B9B69504A15
:10051C0043F0040393614E4B9B6903F004037B602F
:10052C007B684B4B9B694A4A43F008039361484BE9
:10053C009B6903F008033B603B688023BB6001238D
:10054C00FB6000233B6102237B6107F10803194622
:10055C00404801F02DF84FF48073BB600123FB6021
:10056C0000233B6102237B6107F1080319463948DC
:10057C0001F01EF84FF40073BB600123FB600023F5
:10058C003B6102237B6107F108031946314801F0F6
:10059C000FF84FF48063BB600123FB6000233B61C9
:1005AC0002237B6107F1080319462A4801F000F881
:1005BC0000228021274801F096F900224FF4807127
:1005CC00244801F090F900224FF40071214801F009
:1005DC008AF900224FF480611E4801F084F94FF42F
:1005EC000063BB600023FB6001233B6107F1080340
:1005FC001946184800F0DCFF4FF48053BB60002311
:10060C00FB6001233B6107F108031946114800F018
:10061C00CFFF4FF40053BB600023FB6001233B6111
:10062C0007F1080319460B4800F0C2FF4FF4804352
:10063C00BB600023FB6001233B6107F108031946F3
:10064C00044800F0B5FF00BF1837BD4680BD00BFA1
:10065C0000100240000C014090B587B000AF9E4BDB
:10066C003C460FCB84E80F0000237B610023FB7416
:10067C0000237B6126E17B69002B45D101224FF4DD
:10068C008071964801F02FF901224FF400719348C4
:10069C0001F029F901224FF48061904801F023F90F
:1006AC00002280218D4801F01EF90A2000F078FE0E
:1006BC0001E03B78FB744FF40061884801F0FCF8D2
:1006CC000346002BF5D001E07B78FB744FF480518E
:1006DC00824801F0F1F80346002BF5D001E0BB781D
:1006EC00FB744FF400517D4801F0E6F80346002BF3
:1006FC00F5D001E0FB78FB744FF48041774801F0B2
:10070C00DBF80346002BF5D07B69012B45D1012288
:10071C008021724801F0E7F801224FF400716F4814
:10072C0001F0E1F801224FF480616C4801F0DBF834
:10073C0000224FF48071694801F0D5F80A2000F0CE
:10074C002FFE01E03B79FB744FF40061634801F02C
:10075C00B3F80346002BF5D001E07B79FB744FF422
:10076C0080515E4801F0A8F80346002BF5D001E05B
:10077C00BB79FB744FF40051584801F09DF80346C7
:10078C00002BF5D001E0FB79FB744FF4804153480A
:10079C0001F092F80346002BF5D07B69022B45D172
:1007AC00012280214D4801F09EF801224FF4807106
:1007BC004A4801F098F801224FF48061474801F053
:1007CC0092F800224FF40071444801F08CF80A2092
:1007DC0000F0E6FD01E03B7AFB744FF400613F480A
:1007EC0001F06AF80346002BF5D001E07B7AFB742C
:1007FC004FF48051394801F05FF80346002BF5D0D7
:10080C0001E0BB7AFB744FF40051344801F054F80A
:10081C000346002BF5D001E0FB7AFB744FF48041CA
:10082C002E4801F049F80346002BF5D07B69032BC9
:10083C0045D101228021294801F055F801224FF4BD
:10084C008071264801F04FF801224FF400712348C3
:10085C0001F049F800224FF48061204801F043F880
:10086C000A2000F09DFD01E03B7BFB744FF400611E
:10087C001A4801F021F80346002BF5D001E07B7BF0
:10088C00FB744FF48051154801F016F80346002B09
:10089C00F5D001E0BB7BFB744FF400510F4801F025
:1008AC000BF80346002BF5D001E0FB7BFB744FF4F7
:1008BC0080410A4801F000F80346002BF5D07B6913
:1008CC0001337B617B69032B7FF7D5AEFB7C18462C
:1008DC001C37BD4690BD00BF642A0008000C0140C7
:1008EC0080B588B000AF904B9B698F4A43F00403EE
:1008FC0093618D4B9B6903F00403FB60FB688A4B8F
:10090C009B69894A43F008039361874B9B6903F009
:10091C000803BB60BB68844B9B69834A43F010039C
:10092C009361814B9B6903F010037B607B682023F0
:10093C003B6101237B610023BB610323FB6107F156
:10094C0010031946794800F033FE10233B61012354
:10095C007B610023BB610323FB6107F11003194684
:10096C00724800F025FE08233B6101237B610023C4
:10097C00BB610323FB6107F1100319466C4800F0BF
:10098C0017FE10233B6101237B610023BB61032312
:10099C00FB6107F110031946654800F009FE20239E
:1009AC003B6101237B610023BB610323FB6107F1E6
:1009BC00100319465E4800F0FBFD40233B61012308
:1009CC007B610023BB610323FB6107F11003194614
:1009DC00574800F0EDFD0F2000F0E2FC0022402112
:1009EC00534800F080FF00222021514800F07BFF8B
:1009FC00002210214E4800F076FF002208214C48BE
:100A0C0000F071FF00221021484800F06CFF00221A
:100A1C002021464800F067FF00224021444800F0A6
:100A2C0062FF00222021424800F05DFF01221021CC
:100A3C003F4800F058FF012208213D4800F053FFC9
:100A4C0001221021394800F04EFF002220213748A6
:100A5C0000F049FF0A2000F0A3FC002210213348CB
:100A6C0000F041FF0A2000F09BFC0022402130489E
:100A7C0000F039FF002220212D4800F034FF012224
:100A8C0010212B4800F02FFF01220821284800F0EC
:100A9C002AFF01221021254800F025FF00222021E9
:100AAC00224800F020FF0A2000F07AFC00221021DE
:100ABC001E4800F018FF0A2000F072FC00224021B2
:100ACC001B4800F010FF00222021194800F00BFFFA
:100ADC0001221021164800F006FF002208211448BC
:100AEC0000F001FF01221021104800F0FCFE002252
:100AFC0020210E4800F0F7FE0A2000F051FC0022E5
:100B0C0010210A4800F0EFFE0A2000F049FC2820D2
:100B1C0000F0C2F80C2000F0BFF800F0BFF900BFE5
:100B2C002037BD4680BD00BF0010024000080140C8
:100B3C00000C014080B582B000AF0346FB7101226E
:100B4C002021534800F0CFFEFB7903F01003002B5B
:100B5C0005D0012208214F4800F0C5FE04E0002218
:100B6C0008214C4800F0BFFEFB7903F02003002B5A
:100B7C0005D001221021474800F0B5FE04E0002208
:100B8C001021444800F0AFFEFB7903F04003002B2A
:100B9C0005D0012220213F4800F0A5FE04E00022F0
:100BAC0020213C4800F09FFE97F90730002B05DA16
:100BBC0001224021374800F096FE04E0002240213B
:100BCC00344800F090FE01221021314800F08BFED9
:100BDC00012000F0E5FB002210212D4800F083FEDF
:100BEC00012000F0DDFBFB7903F00103002B05D0A5
:100BFC0001220821274800F076FE04E0002208219B
:100C0C00244800F070FEFB7903F00203002B05D0A2
:100C1C00012210211F4800F066FE04E00022102182
:100C2C001C4800F060FEFB7903F00403002B05D098
:100C3C0001222021174800F056FE04E0002220215A
:100C4C00144800F050FEFB7903F00803002B05D08C
:100C5C00012240210F4800F046FE04E00022402112
:100C6C000C4800F040FE01221021094800F03BFE28
:100C7C00012000F095FB00221021054800F033FE06
:100C8C00012000F08DFB00BF0837BD4680BD00BFC2
:100C9C0000080140000C014080B582B000AF034653
:100CAC00FB7100222021534800F01DFEFB7903F05C
:100CBC001003002B05D0012208214F4800F013FE31
:100CCC0004E0002208214C4800F00DFEFB7903F0F3
:100CDC002003002B05D001221021474800F003FE11
:100CEC0004E000221021444800F0FDFDFB7903F0E4
:100CFC004003002B05D0012220213F4800F0F3FDDA
:100D0C0004E0002220213C4800F0EDFD97F907306B
:100D1C00002B05DA01224021374800F0E4FD04E005
:100D2C0000224021344800F0DEFD01221021314820
:100D3C0000F0D9FD012000F033FB002210212D48DA
:100D4C0000F0D1FD012000F02BFBFB7903F0010337
:100D5C00002B05D001220821274800F0C4FD04E037
:100D6C0000220821244800F0BEFDFB7903F00203A9
:100D7C00002B05D0012210211F4800F0B4FD04E027
:100D8C00002210211C4800F0AEFDFB7903F0040397
:100D9C00002B05D001222021174800F0A4FD04E00F
:100DAC0000222021144800F09EFDFB7903F008037B
:100DBC00002B05D0012240210F4800F094FD04E0E7
:100DCC00002240210C4800F08EFD01221021094820
:100DDC0000F089FD012000F0E3FA00221021054803
:100DEC0000F081FD012000F0DBFA00BF0837BD46A2
:100DFC0080BD00BF00080140000C014090B583B0DD
:100E0C0000AF78600B46FB70002409E022467B683B
:100E1C0013441B781846FFF78DFE23460133DCB2D2
:100E2C00FB78A342F2D800BF00BF0C37BD4690BD83
:100E3C0090B583B000AF03460A46FB711346BB71F5
:100E4C00BB79013B032B1BD801A252F823F000BF46
:100E5C006D0E0008750E00087D0E0008850E00084A
:100E6C00FB79013BDCB20FE0FB793F33DCB20BE0EA
:100E7C00FB791333DCB207E0FB795333DCB203E0CC
:100E8C00FB79013BDCB200BF64F07F03DBB2184698
:100E9C00FFF702FF00BF0C37BD4690BD80B500AF19
:100EAC000120FFF7F9FE00BF80BD000080B58AB0BD
:100EBC0000AF00F013FA00F0F3F800F02BF9FFF795
:100ECC0021FB0A2000F06CFA07233B6207F10803B0
:100EDC003A6A6E49184601F039F96D4BFB61F869B5
:100EEC00FFF7F0FA0346FB76FB7E1846FFF796FAFF
:100EFC0003461946F869FFF7DBF9034665491846BE
:100F0C00FFF71EF903467B617869FFF7DBFA0346AE
:100F1C00FB74FA7E3B1D6049184601F017F9FA7C08
:100F2C003B465D49184601F011F9FFF7D9FC0D203D
:100F3C00FFF7B2FE01210120FFF77AFF032157488A
:100F4C00FFF75CFF02210120FFF772FF07F1080396
:100F5C0007211846FFF752FF2020FFF7EBFD3B1D42
:100F6C0002211846FFF74AFF2E20FFF7E3FD3B4610
:100F7C0002211846FFF742FFF420FFF7DBFD42F297
:100F8C00107000F00DFAFFF789FF97F82730412B0E
:100F9C0003D102210120FFF74BFFFFF75DFB034656
:100FAC0087F8273097F82730002B28D097F8273070
:100FBC00232B24D097F827302A2B20D097F82730D2
:100FCC00422B1CD097F82730432B18D097F827309A
:100FDC00442B14D097F82730412B10D097F827309A
:100FEC00382B0CD097F82730392B08D097F82730AE
:100FFC00372B04D097F827301846FFF79BFD97F84E
:10100C0027302A2B02D11020FFF746FE97F8273005
:10101C002A2B02D11820FFF73FFE97F82730232BFD
:10102C0002D11420FFF738FE97F82730232B02D17A
:10103C001C20FFF731FE97F82730422B02D10F20EE
:10104C00FFF72AFE97F82730432B02D10E20FFF72B
:10105C0023FE97F82730372B02D10E20FFF71CFE0A
:10106C0097F82730382B02D10C20FFF715FE97F894
:10107C002730392B02D10C20FFF70EFE97F82730C2
:10108C00442B82D10820FFF707FE7EE7742A000864
:10109C00D7A3D6410000C842802A0008842A000841
:1010AC0080B590B000AF07F1180328220021184634
:1010BC0001F044F83B1D00221A605A609A60DA6015
:1010CC001A610123BB614FF48033FB6100237B6306
:1010DC0007F11803184600F01FFC0346002B01D043
:1010EC0000F03AF80F237B600123BB600023FB6008
:1010FC0000233B6100237B613B1D0021184600F05F
:10110C008DFE0346002B01D000F026F800BF4037BF
:10111C00BD4680BD80B483B000AF0E4B9B690D4AB9
:10112C0043F0200393610B4B9B6903F020037B601E
:10113C007B68084B9B69074A43F004039361054B9A
:10114C009B6903F004033B603B6800BF0C37BD4652
:10115C0080BC70470010024080B400AF72B600BF74
:10116C00FEE7000080B485B000AF154B9B69144AB4
:10117C0043F001039361124B9B6903F00103BB60C5
:10118C00BB680F4BDB690E4A43F08053D3610C4BA9
:10119C00DB6903F080537B607B680A4B5B68FB6008
:1011AC00FB6823F0E063FB60FB6843F00073FB60BB
:1011BC00044AFB68536000BF1437BD4680BC7047BF
:1011CC00001002400000014080B400AFFEE780B484
:1011DC0000AFFEE780B400AFFEE780B400AFFEE7DF
:1011EC0080B400AFFEE780B400AF00BFBD4680BC4A
:1011FC00704780B400AF00BFBD4680BC704780B460
:10120C0000AF00BFBD4680BC704780B500AF00F09A
:10121C00ABF800BF80BD000080B586B000AF786031
:10122C00144A154BD31A7B617B693B61134B1B68CA
:10123C00002B02D1114B124A1A60104B1A687B68B2
:10124C0013443A699A4207D200F04EFF03460C222F
:10125C001A604FF0FF3309E0084B1B68FB60074B2B
:10126C001A687B681344054A1360FB6818461837E4
:10127C00BD4680BD00500020000400008C00002002
:10128C00A800002080B400AF00BFBD4680BC7047F2
:10129C000C480D490D4A002302E0D458C4500433C5
:1012AC00C4188C42F9D30A4A0A4C002301E013609B
:1012BC000432A242FBD3FFF7E5FF00F01BFFFFF760
:1012CC00F5FD70470000002070000020E42A0008A3
:1012DC0070000020A4000020FEE7000080B500AFE5
:1012EC00084B1B68074A43F010031360032000F0FF
:1012FC002BF90F2000F008F8FFF734FF00231846F5
:10130C0080BD00BF0020024080B582B000AF786085
:10131C00124B1A68124B1B7819464FF47A73B3FBB5
:10132C00F1F3B2FBF3F3184600F035F90346002B4A
:10133C0001D001230EE07B680F2B0AD800227968BC
:10134C004FF0FF3000F00BF9064A7B681360002366
:10135C0000E0012318460837BD4680BD0000002080
:10136C00080000200400002080B400AF054B1B785F
:10137C001A46054B1B681344034A136000BFBD4655
:10138C0080BC7047080000209000002080B400AFA3
:10139C00024B1B681846BD4680BC7047900000206D
:1013AC0080B584B000AF7860FFF7F0FFB8607B6861
:1013BC00FB60FB68B3F1FF3F05D00A4B1B781A4664
:1013CC00FB681344FB6000BFFFF7E0FF0246BB68FD
:1013DC00D31AFA689A42F7D800BF00BF1037BD463F
:1013EC0080BD00BF0800002080B485B000AF7860DD
:1013FC007B6803F00703FB600C4BDB68BB60BA68CF
:10140C004FF6FF031340BB60FB681A02BB68134323
:10141C0043F0BF6343F40033BB60044ABB68D36042
:10142C0000BF1437BD4680BC704700BF00ED00E024
:10143C0080B400AF044BDB681B0A03F007031846AB
:10144C00BD4680BC704700BF00ED00E080B483B0A7
:10145C0000AF03463960FB7197F90730002B0ADBAC
:10146C003B68DAB20C4997F907301201D2B20B443F
:10147C0083F800230AE03B68DAB20849FB7903F0F1
:10148C000F03043B1201D2B20B441A7600BF0C3787
:10149C00BD4680BC704700BF00E100E000ED00E0FD
:1014AC0080B489B000AFF860B9607A60FB6803F073
:1014BC000703FB61FB69C3F10703042B28BF04235B
:1014CC00BB61FB690433062B02D9FB69033B00E0CB
:1014DC0000237B614FF0FF32BB6902FA03F3DA435E
:1014EC00BB681A407B699A404FF0FF317B6901FA67
:1014FC0003F3D9437B680B40134318462437BD468E
:10150C0080BC704780B582B000AF78607B68013BCF
:10151C00B3F1807F01D301230FE00A4A7B68013BC2
:10152C0053600F214FF0FF30FFF790FF054B002267
:10153C009A60044B07221A60002318460837BD46F0
:10154C0080BD00BF10E000E080B582B000AF7860D5
:10155C007868FFF749FF00BF0837BD4680BD80B5EE
:10156C0086B000AF0346B9607A60FB7300237B61E1
:10157C00FFF75EFF78617A68B9687869FFF790FFCA
:10158C00024697F90F3011461846FFF75FFF00BF70
:10159C001837BD4680BD80B582B000AF78607868E2
:1015AC00FFF7B0FF034618460837BD4680BD000064
:1015BC0080B48BB000AF7860396000237B6200236D
:1015CC003B6269E101227B6A02FA03F3FB613B682F
:1015DC001B68FA691340BB61BA69FB699A4240F017
:1015EC0058813B685B689A4A93425ED0984A934212
:1015FC0075D8984A934258D0964A93426FD8964AD7
:10160C00934252D0944A934269D8944A93424CD014
:10161C00924A934263D8924A934246D0904A93425C
:10162C005DD8122B2AD8122B59D801A252F823F0CC
:10163C00B716000891160008A3160008E516000856
:10164C00EB160008EB160008EB160008EB1600086A
:10165C00EB160008EB160008EB160008EB1600085A
:10166C00EB160008EB160008EB160008EB1600084A
:10167C00EB16000899160008AD160008794A93423B
:10168C0013D02CE03B68DB683B6229E03B68DB68ED
:10169C0004333B6224E03B68DB6808333B621FE0A9
:1016AC003B68DB680C333B621AE03B689B68002BA1
:1016BC0002D104233B6213E03B689B68012B05D1EC
:1016CC0008233B627B68FA691A6109E008233B62D4
:1016DC007B68FA695A6103E000233B6200E000BFBB
:1016EC00BB69FF2B01D87B6801E07B6804337B610D
:1016FC00BB69FF2B02D87B6A9B0002E07B6A083B2C
:10170C009B003B617B691A680F213B6901FA03F36B
:10171C00DB431A40396A3B6901FA03F31A437B69CC
:10172C001A603B685B6803F08053002B00F0B180BB
:10173C004D4B9B694C4A43F0010393614A4B9B69A7
:10174C0003F00103BB60BB68484A7B6A9B08023309
:10175C0052F82330FB607B6A03F003039B000F22DB
:10176C0002FA03F3DB43FA681340FB607B68404AE0
:10177C00934213D07B683F4A93420DD07B683E4A1C
:10178C00934207D07B683D4A934201D1032306E084
:10179C00042304E0022302E0012300E000237A6A20
:1017AC0002F0030292009340FA681343FB602F4946
:1017BC007B6A9B080233FA6841F823203B685B681C
:1017CC0003F48033002B06D02D4B1A682C49BB69CF
:1017DC0013430B6006E02A4B1A68BB69DB432849AC
:1017EC0013400B603B685B6803F40033002B06D09E
:1017FC00234B5A682249BB6913434B6006E0204BCC
:10180C005A68BB69DB431E4913404B603B685B68FD
:10181C0003F48013002B06D0194B9A681849BB6946
:10182C0013438B6006E0164B9A68BB69DB43144983
:10183C0013408B603B685B6803F40013002B21D0D2
:10184C000F4BDA680E49BB691343CB6021E000BF34
:10185C000000321000003110000022100000211096
:10186C000000121000001110001002400000014096
:10187C0000080140000C0140001001400014014020
:10188C00000401400B4BDA68BB69DB430949134088
:10189C00CB607B6A01337B623B681A687B6A22FAF5
:1018AC0003F3002B7FF48EAE00BF00BF2C37BD4678
:1018BC0080BC70470004014080B485B000AF7860F4
:1018CC000B467B807B689A687B881340002B02D088
:1018DC000123FB7301E00023FB73FB7B18461437D9
:1018EC00BD4680BC704780B483B000AF78600B46B7
:1018FC007B8013467B707B78002B03D07A887B68C7
:10190C001A6103E07B881A047B681A6100BF0C37EC
:10191C00BD4680BC7047000080B586B000AF7860D3
:10192C007B68002B01D1012372E27B681B6803F0FA
:10193C000103002B00F08780924B5B6803F00C03D3
:10194C00042B0CD08F4B5B6803F00C03082B12D1CB
:10195C008C4B5B6803F48033B3F5803F0BD1894B20
:10196C001B6803F40033002B6CD07B685B68002B86
:10197C0068D101234CE27B685B68B3F5803F06D1EC
:10198C00804B1B687F4A43F4803313602EE07B68E6
:10199C005B68002B0CD17B4B1B687A4A23F4803399
:1019AC001360784B1B68774A23F4802313601DE087
:1019BC007B685B68B3F5A02F0CD1724B1B68714A26
:1019CC0043F4802313606F4B1B686E4A43F48033DF
:1019DC0013600BE06B4B1B686A4A23F48033136073
:1019EC00684B1B68674A23F4802313607B685B6831
:1019FC00002B13D0FFF7CAFC386108E0FFF7C6FCD8
:101A0C0002463B69D31A642B01D9032300E25D4BD8
:101A1C001B6803F40033002BF0D014E0FFF7B6FC86
:101A2C00386108E0FFF7B2FC02463B69D31A642B1D
:101A3C0001D90323ECE1534B1B6803F40033002B57
:101A4C00F0D100E000BF7B681B6803F00203002BA1
:101A5C0063D04C4B5B6803F00C03002B0BD0494B51
:101A6C005B6803F00C03082B1CD1464B5B6803F43A
:101A7C008033002B16D1434B1B6803F00203002B61
:101A8C0005D07B681B69012B01D00123C0E13D4BC4
:101A9C001B6823F0F8027B685B69DB003949134350
:101AAC000B603AE07B681B69002B20D0364B01227F
:101ABC001A60FFF76BFC386108E0FFF767FC024621
:101ACC003B69D31A022B01D90323A1E12D4B1B68CF
:101ADC0003F00203002BF0D02A4B1B6823F0F80212
:101AEC007B685B69DB00274913430B6015E0264BD1
:101AFC0000221A60FFF74AFC386108E0FFF746FC49
:101B0C0002463B69D31A022B01D9032380E11D4BFA
:101B1C001B6803F00203002BF0D17B681B6803F0F9
:101B2C000803002B3AD07B689B69002B19D0174B0C
:101B3C0001221A60FFF72AFC386108E0FFF726FC47
:101B4C0002463B69D31A022B01D9032360E10D4BEA
:101B5C005B6A03F00203002BF0D0012000F0A6FA20
:101B6C001CE00A4B00221A60FFF710FC38610FE0F2
:101B7C00FFF70CFC02463B69D31A022B08D903234E
:101B8C0046E100BF00100240000042428004424285
:101B9C00924B5B6A03F00203002BE9D17B681B6854
:101BAC0003F00403002B00F0A6800023FB758B4B85
:101BBC00DB6903F08053002B0DD1884BDB69874A1E
:101BCC0043F08053D361854BDB6903F08053BB60DA
:101BDC00BB680123FB75824B1B6803F48073002BDD
:101BEC0018D17F4B1B687E4A43F480731360FFF758
:101BFC00CDFB386108E0FFF7C9FB02463B69D31AFD
:101C0C00642B01D9032303E1754B1B6803F4807328
:101C1C00002BF0D07B68DB68012B06D16F4B1B6A65
:101C2C006E4A43F0010313622DE07B68DB68002BE6
:101C3C000CD16A4B1B6A694A23F001031362674B90
:101C4C001B6A664A23F0040313621CE07B68DB68A2
:101C5C00052B0CD1614B1B6A604A43F004031362E1
:101C6C005E4B1B6A5D4A43F0010313620BE05B4B56
:101C7C001B6A5A4A23F001031362584B1B6A574ADA
:101C8C0023F0040313627B68DB68002B15D0FFF78D
:101C9C007DFB38610AE0FFF779FB02463B69D31AFA
:101CAC0041F28832934201D90323B1E04B4B1B6ABA
:101CBC0003F00203002BEED014E0FFF767FB386152
:101CCC000AE0FFF763FB02463B69D31A41F2883204
:101CDC00934201D903239BE0404B1B6A03F00203A0
:101CEC00002BEED1FB7D012B05D13C4BDB693B4A34
:101CFC0023F08053D3617B68DB69002B00F0878075
:101D0C00364B5B6803F00C03082B61D07B68DB69F6
:101D1C00022B46D1334B00221A60FFF737FB386198
:101D2C0008E0FFF733FB02463B69D31A022B01D9BB
:101D3C0003236DE0294B1B6803F00073002BF0D1DB
:101D4C007B681B6AB3F5803F08D1244B5B6823F496
:101D5C0000327B689B68214913434B601F4B5B68C7
:101D6C0023F474127B68196A7B685B6A0B431B490A
:101D7C0013434B601B4B01221A60FFF707FB3861C2
:101D8C0008E0FFF703FB02463B69D31A022B01D98B
:101D9C0003233DE0114B1B6803F00073002BF0D0C4
:101DAC0035E0104B00221A60FFF7F0FA386108E0BA
:101DBC00FFF7ECFA02463B69D31A022B01D9032335
:101DCC0026E0064B1B6803F00073002BF0D11EE0DD
:101DDC007B68DB69012B07D1012319E0001002405D
:101DEC0000700040600042420B4B5B68FB60FB687C
:101DFC0003F480327B681B6A9A4206D1FB6803F4B9
:101E0C0070127B685B6A9A4201D0012300E00023C8
:101E1C0018461837BD4680BD0010024080B584B00E
:101E2C0000AF786039607B68002B01D10123D0E0D2
:101E3C006A4B1B6803F007033A689A4210D9674B48
:101E4C001B6823F0070265493B6813430B60634B27
:101E5C001B6803F007033A689A4201D00123B8E0EB
:101E6C007B681B6803F00203002B20D07B681B6887
:101E7C0003F00403002B05D0594B5B68584A43F41C
:101E8C00E06353607B681B6803F00803002B05D0EC
:101E9C00534B5B68524A43F460535360504B5B683E
:101EAC0023F0F0027B689B684D4913434B607B68C1
:101EBC001B6803F00103002B40D07B685B68012B8F
:101ECC0007D1474B1B6803F40033002B15D10123BA
:101EDC007FE07B685B68022B07D1414B1B6803F0EA
:101EEC000073002B09D1012373E03D4B1B6803F0F9
:101EFC000203002B01D101236BE0394B5B6823F00B
:101F0C0003027B685B68364913434B60FFF73EFA6C
:101F1C00F8600AE0FFF73AFA0246FB68D31A41F27E
:101F2C008832934201D9032353E02D4B5B6803F0B5
:101F3C000C027B685B689B009A42EBD1274B1B68B9
:101F4C0003F007033A689A4210D2244B1B6823F023
:101F5C00070222493B6813430B60204B1B6803F0BC
:101F6C0007033A689A4201D0012332E07B681B6870
:101F7C0003F00403002B08D0194B5B6823F4E062D8
:101F8C007B68DB68164913434B607B681B6803F066
:101F9C000803002B09D0124B5B6823F460527B685A
:101FAC001B69DB000E4913434B6000F021F802461D
:101FBC000B4B5B681B0903F00F030A49CB5C22FA3D
:101FCC0003F3094A1360094B1B681846FFF79CF989
:101FDC00002318461037BD4680BD00BF00200240CC
:101FEC0000100240982A0008000000200400002085
:101FFC0090B48AB000AF294B3C1D0FCB84E80F0086
:10200C0040F201233B800023FB610023BB610023D2
:10201C007B6200237B6100233B62214B5B68FB618D
:10202C00FB6903F00C03042B02D0082B03D02BE02C
:10203C001C4B3B622BE0FB699B0C03F00F0328331A
:10204C003B4413F8243C7B61FB6903F48033002B85
:10205C0012D0134B5B685B0C03F0010328333B4439
:10206C0013F8283CBB617B690E4A03FB02F2BB6987
:10207C00B2FBF3F37B6204E07B690B4A02FB03F3D4
:10208C007B627B6A3B6202E0064B3B6200BF3B6AB1
:10209C0018462837BD4690BC704700BF882A0008F8
:1020AC000010024000127A0000093D0080B485B097
:1020BC0000AF78600A4B1B680A4AA2FB03235B0A39
:1020CC007A6802FB03F3FB6000BFFB685A1EFA60E0
:1020DC00002BF9D100BF00BF1437BD4680BC704740
:1020EC0000000020D34D6210014B1868704700BFF0
:1020FC000C00002070B500260C4D0D4C641BA41078
:10210C00A64209D100F09CFC00260A4D0A4C641B27
:10211C00A410A64205D170BD55F8043B9847013672
:10212C00EEE755F8043B98470136F2E7DC2A000845
:10213C00DC2A0008DC2A0008E02A000803460244D6
:10214C00934200D1704703F8011BF9E70EB46FF00E
:10215C00004100B59CB01DAB029006900791049114
:10216C000848094953F8042B0591006802A901930A
:10217C0000F068F80022029B1A701CB05DF804EBAA
:10218C0003B070470C0000200802FFFF2DE9F04758
:10219C008E6882469E420C4690461F4638D88A89E5
:1021AC0012F4906F32D0256809690133A5EB01094F
:1021BC0065694B4405EB450505EBD5756D109D42E6
:1021CC0038BF1D46530531D5294600F06FFB064636
:1021DC0050B90C234FF0FF30CAF80030A38943F0FC
:1021EC004003A381BDE8F0874A46216900F0CEFA8E
:1021FC00A38923F4906343F08003A38126614E44AA
:10220C0026603E466561A5EB0905A560BE4200D976
:10221C003E4632464146206800F0C6FAA3680020CC
:10222C009B1BA360236833442360DBE72A4600F042
:10223C00B1FB06460028E1D15046216900F0CEFAE8
:10224C00C7E700002DE9F04F98468B8907461B061F
:10225C000D4614469DB00ED50B6963B9402100F0B4
:10226C0025FB2860286120B90C233B604FF0FF3020
:10227C00D1E040236B610023099320238DF8293092
:10228C0030234FF00109CDF80C80DFF8A4818DF8D4
:10229C002A3023469A4613F8012B0AB1252AF9D184
:1022AC00BAEB040B0BD05B46224629463846FFF7A7
:1022BC006DFF013000F0AA80099A5A4409929AF8ED
:1022CC000030002B00F0A28000234FF0FF32CDE94C
:1022DC0005230AF1010A049307938DF853301A93DE
:1022EC005446052214F8011B514800F041FA049A97
:1022FC00D8B9D00644BF20238DF85330110744BF02
:10230C002B238DF853309AF800302A2B15D05446D5
:10231C0000204FF00A0C079A214611F8013B303B84
:10232C00092B4ED9B0B1079214E0A0EB080309FABF
:10233C0003F31343A2460493D2E7039B191D1B68B6
:10234C000391002BBBBF5B4242F002020793079341
:10235C00B8BF049223782E2B0CD163782A2B35D15D
:10236C00039B02341A1D1B680392002BB8BF4FF05D
:10237C00FF330593DFF8BCA003225046217800F010
:10238C00F7F940B14023A0EB0A0003FA00F0049BDC
:10239C0001340343049314F8011B062226488DF8DC
:1023AC00281000F0E5F9002838D0244B1BBB039B08
:1023BC00073323F0070308330393099B3344099332
:1023CC0067E70C4601200CFB0232A5E700234FF017
:1023DC000A0C194601340593204610F8012B303AAB
:1023EC00092A03D9002BC5D00591C3E70446012364
:1023FC000CFB0121F0E703AB00932A463846104B47
:10240C0004A9AFF30080421C0646D6D1AB895B060B
:10241C003FF52CAF09981DB0BDE8F08F03AB0093CE
:10242C002A463846064B04A900F07CF8EBE700BFBF
:10243C00A82A0008AE2A0008B22A000800000000F2
:10244C00992100082DE9F047164699468A680B69D0
:10245C0007469342B8BF1346336091F843200C46AD
:10246C00DDF820800AB1013333602368990642BF3E
:10247C00336802333360256815F0060506D104F184
:10248C00190AE36832689B1AAB4228DC94F84320A3
:10249C00131E226818BF012392062DD449463846D4
:1024AC0004F14302C047013020D02368E56803F0F3
:1024BC000603042B18BF002532684FF00006A368F2
:1024CC0008BFAD1A226908BF25EAE5759342C4BF5F
:1024DC009B1AED181A34B5421AD1002008E00123DA
:1024EC00524649463846C047013003D14FF0FF30C1
:1024FC00BDE8F0870135C4E73020E11881F84300CE
:10250C005A1C94F845102244023382F84310C5E754
:10251C000123224649463846C0470130E6D00136F1
:10252C00D9E700002DE9FF470F7E9146782F8046B2
:10253C000C469A460C9D01F1430207D8622F0AD82B
:10254C00002F00F0D980582F00F0A48004F1420530
:10255C0084F842703AE0A7F16303152BF6D801A179
:10256C0051F823F0C9250008DD250008592500087D
:10257C00592500085925000859250008DD250008B3
:10258C005925000859250008592500085925000827
:10259C00EB2600080D260008CD260008592500085A
:1025AC00592500080D270008592500080D2600089C
:1025BC005925000859250008D52600082B681A1D36
:1025CC001B682A6004F1420584F842300123A4E020
:1025DC0020682968060601F104030AD50E682B60F1
:1025EC00002E03DA2D23764284F843300A235E480A
:1025FC0019E00E6810F0400F2B6018BF36B2EFE7F1
:10260C002B682068191D2960010601D51E6802E09F
:10261C004606FBD51E886F2F0CBF08230A23524891
:10262C00002184F843106568002DA8BF2168A560BF
:10263C00A4BF21F0040121600EB9002D4DD0154628
:10264C00B6FBF3F103FB1167C75D05F8017D374657
:10265C00BB420E46F4D9082B0BD12368DE0708D5F4
:10266C00236961689942DEBF302305F8013C05F10E
:10267C00FF35521B22614B4621464046CDF800A047
:10268C0003AAFFF7DFFE01304CD14FF0FF3004B04E
:10269C00BDE8F087344881F845702968236851F803
:1026AC00046B29601D0614D5DF0744BF43F02003DB
:1026BC0023601EB9236823F0200323601023AFE7A7
:1026CC00236843F0200323607823284884F845309E
:1026DC00E3E7590648BFB6B2E6E71546BBE72B68F9
:1026EC002668181D6169286035061B6801D51960BC
:1026FC0002E07006FBD51980002315462361BAE76A
:10270C002B6800211A1D2A601D686268284600F09B
:10271C002FF808B1401B606063682361002384F8C4
:10272C004330A8E72A46494640462369D047013042
:10273C00ABD023689B0713D4E068039B9842B8BFC7
:10274C001846A4E70123324649464046D04701309B
:10275C009BD00135E36803995B1AAB42F2DCEBE7E3
:10276C00002504F11906F5E7B92A0008CA2A000861
:10277C00034610B5C9B202449342184601D1002059
:10278C0003E0047801338C42F6D110BD0A44914227
:10279C0000F1FF3300D1704710B511F8014B914295
:1027AC0003F8014FF9D110BD884210B501EB0204BA
:1027BC0002D98442234607D8431EA14208D011F8FF
:1027CC00012B03F8012FF8E7014602448A4200D19D
:1027DC0010BD13F8014D02F8014DF7E738B5054669
:1027EC00002940D051F8043C0C1F002BB8BFE41852
:1027FC0000F010F91C4A136833B963601460284662
:10280C00BDE8384000F00CB9A34208D92068211863
:10281C008B4201BF19685B6809182160EDE71A4605
:10282C005B680BB1A342FAD911685018A0420BD1C6
:10283C0020680144501883421160E0D118685B682D
:10284C00014411605360DAE702D90C232B60D6E700
:10285C00206821188B4201BF19685B680918216038
:10286C0063605460CBE738BD9400002070B50E4E09
:10287C000C463168054611B900F0BCF830602146B1
:10288C00284600F0B7F8431C0AD0C41C24F00304FB
:10289C00A04207D0211A284600F0ACF8013001D133
:1028AC004FF0FF34204670BD980000202DE9F04118
:1028BC00CD1C25F0030508350C2D38BF0C25002D3B
:1028CC00074601DBA94205D90C2300263B603046A4
:1028DC00BDE8F0812E4E00F09DF833681C4634BBE9
:1028EC0029463846FFF7C2FF431C04464DD13468D5
:1028FC002646002E40D123683146384604EB0308A7
:10290C0000F078F880453AD1216803356D1A25F02E
:10291C00030508350C2D38BF0C2538462946FFF722
:10292C00A5FF01302BD023682B4423600EE02268D6
:10293C00521B1ED40B2A16D96119A342256018BF4D
:10294C005960636808BF316062514B60384604F1CE
:10295C000B0600F065F826F00706231DF21AB6D018
:10296C009B1BA350B3E76268A3420CBF32605A6052
:10297C00ECE723466468B2E734467668B9E70C2383
:10298C0038463B6000F04CF8A1E72560DEE700BF5D
:10299C00940000202DE9F041804614460E4621B9E2
:1029AC001146BDE8F041FFF781BF2AB9FFF716FFCA
:1029BC0025462846BDE8F08100F038F884420746E9
:1029CC0002D8B4EB500F12D821464046FFF76EFFE9
:1029DC0005460028EDD0BC422246314628BF3A4677
:1029EC00FFF7D4FE31464046FFF7F8FEE1E73546E7
:1029FC00DFE7000038B50023054D044608462B6080
:102A0C00FEF70AFC431C02D12B6803B1236038BDCE
:102A1C009C000020014800F011B800BFA00000206D
:102A2C00014800F00CB800BFA000002051F8043C95
:102A3C00181F002BBCBF0B58C0187047704770474D
:102A4C00F8B500BFF8BC08BC9E467047F8B500BF8F
:082A5C00F8BC08BC9E4670475F
:102A64003132334134353642373839432A302344FE
:102A740076616C6F723D253364000000253264007A
:102A840057696E0002030405060708090A0B0C0DBA
:102A94000E0F1010000000000000000001020304EB
:102AA40006070809232D302B2000686C4C0065664E
:102AB400674546470030313233343536373839418B
:102AC40042434445460030313233343536373839A1
:082AD4006162636465660000A5
:042ADC0031010008BC
:042AE0000D010008DC
:102AE4000024F40010000000010000001000002089
:102AF40000000000000000000000000000000000D2
:102B040000000000000000000000000000000000C1
:102B140000000000000000000000000000000000B1
:102B240000000000000000000000000000000000A1
:102B34000000000000000000000000000000000091
:102B44000000000000000000000000000000000081
:040000050800129D40
:00000001FF
